:04000000020049327F
:01000B0032C2
:0100130032BA
:01001B0032B2
:0100230032AA
:01002B0032A2
:01003300329A
:01003B003292
:0300430002009028
:03008D0002004628
:030046000201654F
:10009000C021C0E0C0F0C082C083C007C006C00558
:1000A000C004C003C002C001C000C0D075D000129F
:1000B0000C4FD0D0D000D001D002D003D004D00556
:1000C000D006D007D083D082D0F0D0E0D021327FCC
:1000D000FFC29590007DC0071203C0D29590007DAD
:1000E0001203C0D007EF14FF70E722AF82EF601752
:1000F000C2B4900064C0071203DED2B49000641250
:1001000003DED0071F80E6C2B42285821D85831ED0
:1001100085F01F7B007C00C3EB951BEC6480851C85
:10012000F063F08095F05039EB251DF8EC351EF9A1
:10013000AA1F888289838AF0121668F8EB2518F9BD
:10014000EC3519FAAF1A89828A838FF0121668F992
:10015000E8B501028004900000220BBB00B90C80BE
:10016000B69000012275A15575A1AA53B9F843B9FB
:100170000675A1009000051203DE120951120560F8
:100180005392DF4393205396EF4397109016A37535
:10019000F0801207C69016B675F0801207C690164A
:1001A000B875F08012079B1200CF9001007463F0C5
:1001B000900101746CF09001027465F09001037479
:1001C00061F09001047472F0900105E4F090010672
:1001D0007462F0900107746CF09001087469F090FB
:1001E0000109746EF090010A746BF090010BE4F059
:1001F00090010C7472F090010D7465F090010E7412
:1002000073F090010F7465F09001107474F0900118
:1002100011E4F07E007F0090015DE060FAC007C04D
:100220000612084DAD82C0051205F5D005D006D0E6
:1002300007BD29159016BB75F080C007C006C00524
:10024000120841D005D006D0078D037C00C007C03E
:1002500006C005C003C00474C1C0E07416C0E074D9
:1002600080C0E07412C0E07401C0E0E4C0E0120D90
:1002700060E58124F8F58190011275F000120841C3
:10028000D005D006D007EE2412F582EF3401F583B5
:10029000EDF00EBE00010FC3EE9405EF6480948074
:1002A000404CEE2412FCEF3401FDEC24FBFCED3459
:1002B000FFFD7B007518007519018B1A751B058BE6
:1002C0001C8C828D838BF0C007C00612010AE58268
:1002D0008583F0D006D00745F06013120501901613
:1002E000B675F08012079B7E007F00020217C3EEF6
:1002F0009405EF648094804058EE2412FCEF3401A2
:10030000FDEC24FBFCED34FFFD7B00751806751930
:10031000018B1A751B058B1C8C828D838BF0C0079B
:10032000C00612010AE5828583F0D006D00745F0A9
:10033000601F75820A1200EB9016C475F0801207D8
:10034000C69016B675F08012079B7E007F000202F1
:1003500017C3EE9405EF64809480404FEE2412FCA6
:10036000EF3401FDEC24FBFCED34FFFD7B00751840
:100370000C7519018B1A751B058B1C8C828D838B58
:10038000F0C007C00612010AE5828583F0D006D0CE
:100390000745F060167582021200EB9016C475F0E6
:1003A000801207C67E007F00020217C3EE9440EF62
:1003B0006480948050030202177E007F00020217BF
:1016A3002A20436F636B6574204E6F766120322E60
:1016B300352A003E005F0D0048656C6C6F002564A1
:0216C300000025
:1003C000AE82AF83EE4F601505A105A105A105A181
:1003D00005A105A105A11EBEFF011F80E722AE8277
:1003E000AF83EE4F6011E5C330E7FBE5C320E7FBC9
:1003F0001EBEFF011F80EB224396025397FD4396DA
:10040000015397FE22AF827E08EF30E706D2B1A2F9
:10041000B18004C2B1A2B1800005A1D2B0800005B4
:10042000A1800005A1C2B01E8F05ED2DFFEE70D991
:10043000D2B1800005A1800005A1800005A1D2B045
:10044000800005A1800005A1C2B022C2B1800005D4
:10045000A1C2B0020405D2B1800005A1D2B002044D
:100460004BC2B1800005A1D2B0800005A1D2B1225B
:10047000AF827E00D2B17D088E04EC2CFE80000598
:10048000A1800005A1D2B030B103430601C2B0ED96
:1004900014FCFD70E3EF6002C2B1800005A1800092
:1004A00005A1800005A1D2B0800005A1800005A1B2
:1004B000C2B08E8222AF82758278C00712044B755B
:1004C0008200120405D00774B02FF582120405755E
:1004D00082001204057582101204050204611204E0
:1004E000B575827812044B7582401204057F8075C1
:1004F0008200C007120405D007EF14FF70F1020458
:10050000617F008F82C0071204DED0070FBF080092
:1005100040F1900154E0FF900152F0900153E4F05B
:10052000EF2FFF74075FF5820204B5900154E0F5E8
:10053000821204DE900154E0FF0F74075FF07582B1
:100540007812044B7582001204057582D3120405DB
:10055000900154E0C40354F8F582120405020461CA
:100560001203F875827812044B7582001204057F1D
:1005700000EF901A0593F582C007120405D0070F0B
:10058000BF0B0040EC120461900154E4F00205013D
:10059000AF827E00EF24E0FFEE34FFFEEF2FFCEE93
:1005A00033FDEC2CFCED33FDEC2FFCED3EFD7582B4
:1005B00078C005C00412044B758240120405D004B3
:1005C000D0057F058C06EE24C5F582ED3416F58343
:1005D0000EBE00010DE493F582C007C006C00512EF
:1005E0000405D005D006D007EF14FF70D9F58212AC
:1005F0000405020461AF8253077FBF2000403B8F98
:1006000082120590900153E02401F0E024EB4001B8
:1006100022900153E4F0900152E0FEBE070512055E
:100620002B8006900152EE04F0900154E0FE900100
:1006300052E02E5407F5820204B5BF0A29900153F7
:10064000E4F0900152E0FEBE070512052B800690F3
:100650000152EE04F0900154E0FE900152E02E545D
:1006600007F5820204B5BF0D16900153E4F0900126
:1006700054E0FF900152E02F5407F5820204B522A6
:10068000AF827E00EF24E0FFEE34FFFEEF2FFCEEA2
:1006900033FDEC2CFCED33FDEC2FFCED3EFD7582C3
:1006A00078C005C00412044B758240120405D004C2
:1006B000D0057F048C06EE24A5F582ED3418F58371
:1006C0000EBE00010DE493F582C007C006C00512FE
:1006D0000405D005D006D007EF14FF70D9F58212BB
:1006E0000405020461AF8253077FBF2000403B8FA7
:1006F00082120680900153E02401F0E024EA4001D8
:1007000022900153E4F0900152E0FEBE070512056D
:100710002B8006900152EE04F0900154E0FE90010F
:1007200052E02E5407F5820204B5BF0A2990015306
:10073000E4F0900152E0FEBE070512052B80069002
:100740000152EE04F0900154E0FE900152E02E546C
:1007500007F5820204B5BF0D16900153E4F0900135
:1007600054E0FF900152E02F5407F5820204B522B5
:10077000AD82AE83AFF08D828E838FF0121668FC4F
:1007800060188C820DBD00010EC007C006C00512A6
:1007900006E5D005D006D00780DC22AD82AE83AF5F
:1007A000F08D828E838FF0121668FC60188C820D9B
:1007B000BD00010EC007C006C0051205F5D005D06A
:0F07C00006D00780DC2212079B75820A0205F51E
:1016C500000000000000005F000000070007001494
:1016D5007F147F14242A7F2A122313086462364953
:1016E5005522500004030000001C22410000412245
:1016F5001C0014083E081408083E08080080600015
:1017050000080808080800606000002010080402AE
:101715003E5149453E44427F40404261514946223F
:10172500414949361814127F102F494949313E491C
:10173500494932030171090736494949362649495C
:10174500493E00363600000080680000000814227B
:10175500001414141414002214080002015109067F
:101765003E415D555E7C1211127C7F494949363EEA
:10177500414141227F4141221C7F494949417F091D
:101785000909013E4149493A7F0808087F41417FDF
:1017950041412040413F017F081422417F404040A4
:1017A500407F020C027F7F0408107F3E4141413E8D
:1017B5007F090909063E4141C1BE7F09192946260F
:1017C5004949493201017F01013F4040403F1F2007
:1017D50040201F3F4038403F6314081463070870DA
:1017E50008076151494543007F4141000204081043
:1017F500200041417F000804020408404040404069
:10180500000003040020545454787F44444438387D
:1018150044444428384444447F385454541808FEFA
:1018250009010218A4A4A4787F0404047800447D67
:1018350040000080847D00417F10284400417F40A6
:10184500007C047C04787C040404783844444438DF
:10185500FC2424241818242424FC7C0804040808E7
:1018650054545420043F4440203C4040403C1C20FC
:1018750040201C3C4030403C44281028441CA0A07B
:10188500A07C4464544C4408083641410000FF00E4
:101895000041413608080804081008FFFFFFFFFF54
:1018A500000000005F000000030003003E143E142A
:1018B5002E6B3A0033086462364956200007000053
:1018C5001C22410041221C0014083E0808083E085D
:1018D50000A06000080808080060600020100804E7
:1018E5003E51493E00427F406251494622494936B0
:1018F5000F08087F4F4949313E49493201710907AF
:10190500364949362649493E7E09097E7F49493689
:101915003E4141227F41413E7F4949417F090901BD
:101925003E41493A7F08087F417F410020413F0100
:101935007F0814637F4040407F020C027F04087FCC
:101945003E41413E7F0909063E41215E7F091966F8
:1019550026494932017F01013F40403F1F20403F5A
:101965007F201820770808770708700761514947D5
:101975007F41000004081020417F000002010200A1
:101985004040404001020000205454787F484438CC
:10199500384444283844487F38545418087E09028E
:1019A50018A4A4787F080478447D400040847D0015
:1019B5007F102844417F40007C047C047C0404782B
:1019C50038444438FC242418182424FC7C080404D6
:1019D50048545424043F44243C40403C1C20403C93
:1019E5003C403040442810281CA0A07C4464544C42
:1019F50008364100007F000041360800080408044D
:0B1A0500A83F8D142002DA12A1C8AF28
:10005C00C200900155E4F074C2A3F07401A3F0E463
:10006C00A3F0900159F090015AF090015B7408F0E4
:10007C0090015CE4F090015DF090015EF090015F06
:01008C00F083
:1007CF0020001690015FE06010D20090015FE0F50D
:1007DF00D553D4FC90015FE4F022AF822000FD904E
:1007EF00015FE0FE04F07D0074402EFEE43DFDEE5F
:1007FF002414F582ED3400F583EFF090015FE0FFF4
:10080F00BF40030207CF22AD82AE83AFF08D828E41
:10081F00838FF0121668FC60188C820DBD00010EDC
:10082F00C007C006C0051207E9D005D006D0078063
:10083F00DC2212081675820A1207E90207CF90010F
:10084F005DE060FA90015EE0FF04F0EF2414F582A2
:10085F00E43400F583E0FF90015DE014FEF0EE70EC
:10086F000353D4F38F82227E0A7F008EEE8FEF7EAA
:10087F00147F008EE48FE575D21275D41275EB0CD0
:10088F0075EA4075D30075D50090015DE4F0C200A4
:10089F0022AF08BF20028036BF21028005BF22325F
:1008AF0080207F008F057E00EF2455F582E4340110
:1008BF00F583E08D828E83F00FBF070040E67582CF
:1008CF000722900002E090015CF075820022758291
:1008DF0000227582FF227420B5082A7F0074F92543
:1008EF00DB50047E078002AEDBC3EF9E5017EF2470
:1008FF0055FDE43401FE8F82758300E0FC8D828EFE
:10090F0083F00F80D875DC402274FC55D44402F577
:10091F00D4C2002230DE17E5DB601374F355D444E4
:0F092F0008F5D490015DE5DBF090015EE4F02265
:101A100012011001000000080912DD270001010277
:101A2000030109024B000201008032080B00020290
:101A3000020104090400000102020104052400104F
:101A40000105240100000424020205240600010708
:101A500005810308000109040100020A00000407CF
:101A6000050202400000070582024000000403094D
:101A7000041E0355004E00540065006C00650063B1
:101A800000740072006F006E00690063007300163E
:101A9000034900320043002D0042007200690064D7
:101AA0000067006500340367006900740068007512
:101AB0000062002E0063006F006D002F0055004E85
:101AC00000540065006C0065006300740072006FD4
:101AD000006E006900630073002A034D0069006313
:101AE0000072006F0048006F006E00690074006FA4
:101AF00000200072006500760030002E0030002EBD
:031B0000003100B1
:10093E007E007F008EEC8FED75DC0275DD00C2014E
:10094E0002087675E22975D18112093E75E10775A7
:10095E00D81FD2EAD2AF22C0E0C007AF8205A29064
:10096E00000015A2850E82850F83E493A3A5DFFAFE
:10097E0085820E85830FD007D0E0227F009000077E
:10098E00E0FD7E00900006E0FC7B004EF50CEB4D8A
:10099E00F50D900001E0F508900000E0F509E5097D
:1009AE0054606003020BADE508FE24F45003020B05
:1009BE00A9EEF5F0240B83F582E5F0241083F58380
:1009CE00E473CDEDA948A99CE8A9A5C2C3C30A0A40
:1009DE000B0B0B0A090B0A0A0B0B900003E0FEBE71
:1009EE000102800ABE0202800FBE03688014750EDB
:1009FE0010750F1A7F12805E750E22750F1A7F4BBF
:100A0E008054900002E0FE24FB4038EE2E900A1F28
:100A1E00738008800E8014801A8020750E6D750FFD
:100A2E001A8026750E71750F1A801E750E8F750F32
:100A3E001A8016750EA5750F1A800E750ED9750FC4
:100A4E001A8006750EA5750F1A850E82850F83E422
:100A5E0093FF80027FFFBFFF03020BC38F057E0053
:100A6E00C3ED950CEE950D50048D0C8E0DAD0CAEA8
:100A7E000DC3ED9408EE940040067D087E008004C0
:100A8E00AD0CAE0D8D078F82120965020BC390005F
:100A9E0002E0F50B020BC3900000E50AF0AD0CAEC0
:100AAE000DC374019DE49E5006750C01750D00AFCB
:100ABE000C020BC3900002E0F50AD201020BC390A8
:100ACE000000E4F0900001F0AD0CAE0DC374029D79
:100ADE00E49E5006750C02750D00AF0C020BC3E5BB
:100AEE0009541F701E900002E0FEBE0111901A29DB
:100AFE00E493FE30E503020BC37FFF020BC37FFFBF
:100B0E00020BC3AD0953051F7E00BD0228BE002592
:100B1E00900004E0FEBE02028005BE8213800653E2
:100B2E00D473020BC374BC55D44402F5D4020BC368
:100B3E007FFF020BC37FFF020BC3E509541F701921
:100B4E00900002E0FEBE010D901A29E493FE20E50E
:100B5E00647FFF80607FFF805CAD0953051F7E00C0
:100B6E00BD0234BE0031900002E07027900004E018
:100B7E00FEBE02028005BE8216800A747F55D444E2
:100B8E000CF5D4803074BF55D44403F5D480267F41
:100B9E00FF80227FFF801E7FFF801A7FFF8016ADB1
:100BAE00095305607E00BD200ABE00071208A0AFE3
:100BBE008280027FFFBFFF077508FF75DCCF228F93
:100BCE00057E00AB0CAC0DEBC39DFBEC9EFC8B0CC1
:100BDE008C0D8FDD75DCC022AF08BF0502803CBFD7
:100BEE000647AE0CAF0DC3EE9408EF940040067EA0
:100BFE00087F008004AE0CAF0D8E821209658E0543
:100C0E007F00AB0CAC0DEBC39DFBEC9FFC8B0C8CF7
:100C1E000D8EDDAEDC6306408EDC22E5E35480FFF4
:100C2E00E50B4FF5E375DC822275DC8222AE0953AB
:100C3E0006607F00BE2006BF00030208E575DC409B
:100C4E002230D94FE5D9540FFFADD95305307E0070
:100C5E00BD0005BE00028027BD2005BE0002800B30
:100C6E00BD302EBE002B1209898026BF00028005E2
:100C7E00BF021E8005120BE680171209188012BFE4
:100C8E0000028005BF020A8005120C3B8003120988
:100C9E0023C2D910DA02800030D80912093E75E35A
:050CAE000075D81F22B3
:06005600E478FFF6D8FD7E
:100CB300C017858117C082058105810581E5172449
:100CC300FBF8A9170909E6F70809E6F70809E6F7A3
:100CD300A817080886820886830886F0121668FA21
:100CE300A3121668FBA3121668FF74012AFCE43BE7
:100CF300FD8F06A817080886820886830886F0EC0D
:100D0300121688A3ED121688A3EE1216888A828B18
:100D1300838FF0A81708E6121688851781D017224B
:100D230085821485831585F016752F14753000752B
:100D33003140851032851133851234851335900C7B
:100D4300B3120E4BAE82AF83AB14AC15AD168B82D0
:100D53008C838DF0E41216888E828F8322C017E570
:100D630081F51724F8FF8F35E51724FBFF8F2F75C7
:100D73003000753140E51724F8F8863208863308C9
:100D83008634900CB3120E4BAE82AF83E51724FB6F
:100D9300F886030886040886058B828C838DF0E42D
:100DA3001216888E828F83D01722AF82C025C02669
:100DB300C027120DBA8007C023C0248F8222158159
:100DC30015811581052DE4B52D02052E22AF827400
:100DD300302FFF24C6500B74072FFFE52260034317
:100DE30007208F82020DADE582FFC4540FF582C048
:100DF30007120DD0D007740F5FF582020DD08582E4
:100E030018AB28AC29AD2AAE2BAA2C751A208A0759
:100E1300EF2FF519EE2354014519FAEB2BFBEC33B5
:100E2300FCED33FDEE33FEC3EA95184008EAC395A3
:100E330018FA430301E51A14FF8F1A70D18B288C1B
:100E4300298D2A8E2B8A2C22858223858324852F24
:100E530025853026853127E4F52DF52EAD32AE33C9
:100E6300AF348D828E838FF0121668FC74012DF5DA
:100E730032E43EF5338F34ECFF700302162CBF25AA
:100E83000280030216247E007D008E368E377A00A0
:100E93007B008E387C008E39E4F541F542753AFFCC
:100EA300753BFF85324385334485344585438285CD
:100EB30044838545F0121668F546A38582438583EE
:100EC300448543328544338545347425B5460885C6
:100ED3004682120DAD808574D025464003020F8DE6
:100EE300E54624C65003020F8D74FFB53A55B53B52
:100EF3005285411885421990000AC006C005C004F6
:100F0300C003C00212164B858247858348D002D0A6
:100F130003D004D005D006854649754A00E5492526
:100F230047F549E54A3548F54AE54924D0F541E511
:100F33004A34FFF542E54145426003020EAF7D01AD
:100F4300020EAF853A18853B1990000AC006C0050A
:100F5300C004C003C00212164B85824985834AD060
:100F630002D003D004D005D006854647754800E576
:100F7300472549F549E548354AF54AE54924D0F579
:100F83003AE54A34FFF53B020EAF742EB5461574AD
:100F9300FFB53A05B53B028003020EAFE4F53AF51F
:100FA3003B020EAF749F2546500EE546248540084C
:100FB3005346DF75220180037522007420B5460372
:100FC300021059742BB54603021053742DB5460213
:100FD30080797442B5460302105F7443B546030239
:100FE300106A7444B546030212B77446B546030249
:100FF30012CD7448B54603020EAF7449B5460302D9
:1010030012B7744AB54603020EAF744CB54602805C
:1010130050744FB546030212BE7450B54603021214
:10102300027453B5460280767454B54603020EAF7C
:101033007455B546030212C37458B546030212C869
:10104300745AB54603020EAF0212D17E01020EAFEF
:10105300753601020EAF753701020EAF7B01020E2A
:10106300AF753801020EAFEB600AE53514F9893527
:101073008749800DE53524FEF547854735A9478720
:1010830049854982C006C005C004C003C002120DD1
:10109300ADD002D003D004D005D0060212F3E5355B
:1010A30024FDF549854935A94987430987440987BB
:1010B30045191985432885442985452A8543828511
:1010C30044838545F0C006C005C004C003C00212B6
:1010D300163385824985834AD002D003D004D005D4
:1010E300D00674FFB53A09B53B0685493A854A3BB4
:1010F300EE704FC3E5499541E54A95425044E541B9
:10110300C39549F547E542954AF5488547438548E0
:1011130044154774FFB547021548E5434544601C31
:10112300758220C006C005C004C003C002120DAD05
:10113300D002D003D004D005D00680CF85474185A7
:101143004842853A47853B48852882852983852AF5
:10115300F0121668F54385433E604FC3E495477428
:10116300808548F063F08095F0503F154774FFB5D4
:1011730047021548853E82C006C005C004C003C0AF
:1011830002120DADD002D003D004D005D0068528BD
:1011930043852944852A450543E4B543020544852F
:1011A300432885442985452A809EEE70030212F365
:1011B300C3E5499541E54A954240030212F3E541EF
:1011C300C39549F549E542954AF54A854947854A14
:1011D30048154974FFB54902154AE5474548700368
:1011E3000212ED758220C006C005C004C003C00210
:1011F300120DADD002D003D004D005D00680CCE5CB
:101203003524FDF547854735A947874309874409B1
:101213008745191985432885442985452A852A3F09
:101223007480253F5005754743801974A0253F50AE
:1012330005754750800E74C0253F5005754749809A
:1012430003754758854782C006C005C004C003C064
:1012530002120DAD75823A120DAD758230120DADCD
:10126300758278120DADD002D003D004D005D0061C
:101273007449B5470280217450B54702801A852905
:1012830082C006C005C004C003C002120DEAD0022A
:10129300D003D004D005D006852882C006C005C07F
:1012A30004C003C002120DEAD002D003D004D0055B
:1012B300D006803C7A0175390A803575390880304B
:1012C30075390A802B75391080267C01802285466A
:1012D30082C006C005C004C003C002120DADD00217
:1012E300D003D004D005D0068006854941854A4203
:1012F300EC6068E53524FCFC8C358C01874B098751
:101303004C09874D09874E191919854B28854C2996
:10131300854D2A854E2B75280375291B752A8085D3
:10132300284B85294C852A4D7401254BF543E4351B
:101333004CF544854D4585432885442985452A85B3
:101343004B82854C83854DF0121668FC8C4B7003E1
:10135300020E5F854B82120DAD80C4E53970030226
:101363000E5FEB603FE53514F9893587048C4B75C7
:101373004C00754D00754E00854B28854C29854DD5
:101383002A854E2BEA600302141085284B754C0006
:10139300754D00754E00854B28854C29854D2A8552
:1013A3004E2B8069E5386025E53524FCFC8C358CB3
:1013B30001874B09874C09874D09874E19191985F0
:1013C3004B28854C29854D2A854E2B8040E53524B5
:1013D300FEFC8C358C018703098704198B4BECF5D4
:1013E3004C3395E0F54DF54E854B28854C29854DBD
:1013F3002A854E2BEA701685284B85294CF54DF529
:101403004E854B28854C29854D2A854E2BEA602A2B
:10141300E52B30E723C3E49528F54BE49529F54CF8
:10142300E4952AF54DE4952BF54E854B28854C29FB
:10143300854D2A854E2B80027A007C017954E4F590
:101443004BF54C752C00853982C006C005C004C01D
:1014530002C001120E01D001D002D004D005D00683
:10146300EC700DE52CC4F549E7FB4549F7198002FB
:10147300A72C054BE4B54B02054CECB40100E43357
:10148300FCE5284529452A452B70B88940854B3C06
:10149300854C3DE54145427005754101F542ED70CE
:1014A30043EE704085414B85424CAB3C0B8B4975F9
:1014B3004A00C3E549954BE54A954C502175822076
:1014C300C006C005C004C002120DADD002D004D0C6
:1014D30005D006154B74FFB54B02154C80CC854BDC
:1014E30041854C42EA601D75822DC006C005C004CB
:1014F300120DADD004D005D006154174FFB54102DD
:1015030015428046E53C453D6040E536601D7582E9
:101513002BC006C005C004120DADD004D005D00603
:10152300154174FFB541021542801FE537601B75F5
:101533008220C006C005C004120DADD004D005D072
:1015430006154174FFB541021542EE703C85414BCF
:1015530085424CAA4BAB4C154B74FFB54B02154C53
:10156300C3E53C9AE53D9B5041ED60067A307B0034
:1015730080047A207B008A82C006C005C004120D55
:10158300ADD004D005D00680CAC3E53C9541E53D06
:101593009542500FE541C3953CF549E542953DF52C
:1015A3004A800DE4F549F54A8006854B49854C4A46
:1015B300A940853C4B853D4CAA4BAD4C154B74FF64
:1015C300B54B02154CEA4D602EECB40100E433FC3C
:1015D300700A09E7C4540FFD8D2C80078705740F2B
:1015E3005DF52C852C82C006C004C001120DD0D03D
:1015F30001D004D00680C1EE7003020E5FAD49AE88
:101603004A8D038E041DBDFF011EEB4C7003020EB9
:101613005F758220C006C005120DADD005D00680CF
:10162300E08F82120DAD020E5F852D82852E8322FF
:0B1B03003C4E4F20464C4F41543E002A
:10163300AA82AB831216686003A380F8C3E5829A7B
:10164300F582E5839BF58322E5828518F0A4C582A4
:10165300C0F08519F0A4D0F025F0C5838518F0A457
:051663002583F5832240
:0D004900758154121684E5826003020046A2
:1016680020F71430F6148883A88220F507E6A883AB
:1016780075830022E280F7E49322E022758200223B
:1016880020F71130F6138883A88220F509F6A8837D
:0B1698007583002280FEF280F5F02236
:00000001FF
